:020000040800F2
:10000000A006002089010008910100089301000862
:100010009501000897010008990100080000000000
:100020000000000000000000000000009B0100082C
:100030009D010008000000009F010008A1010008C8
:10004000A3010008A3010008A3010008A301000800
:10005000A3010008A3010008A3010008A3010008F0
:10006000A3010008A3010008A3010008A3010008E0
:10007000A3010008A3010008A3010008A3010008D0
:10008000A3010008A3010008A3010008A3010008C0
:10009000A3010008A3010008A3010008A3010008B0
:1000A000A3010008A3010008A3010008A3010008A0
:1000B000A3010008A3010008A3010008A301000890
:1000C000A3010008A3010008A3010008A301000880
:1000D000A3010008A3010008A3010008A301000870
:1000E000A3010008A3010008A301000800F002F822
:1000F00000F03AF80AA090E8000C82448344AAF188
:100100000107DA4501D100F02FF8AFF2090EBAE885
:100110000F0013F0010F18BFFB1A43F0010318473B
:10012000AC070000CC070000103A24BF78C878C1A3
:10013000FAD8520724BF30C830C144BF04680C60ED
:10014000704700000023002400250026103A28BF35
:1001500078C1FBD8520728BF30C148BF0B60704739
:100160001FB51FBD10B510BD00F031F81146FFF7E7
:10017000F7FF00F037FB00F04FF803B4FFF7F2FF92
:1001800003BC00F057F800000948804709480047C1
:10019000FEE7FEE7FEE7FEE7FEE7FEE7FEE7FEE737
:1001A000FEE7FEE704480549054A064B7047000094
:1001B000F1050008ED000008A0000020A0060020C6
:1001C000A0020020A00200207047704770477546CB
:1001D00000F02CF8AE4605006946534620F00700B3
:1001E000854618B020B5FFF7DDFFBDE820404FF091
:1001F00000064FF000074FF000084FF0000B21F011
:100200000701AC46ACE8C009ACE8C009ACE8C009DD
:10021000ACE8C0098D46704710B50446AFF30080C6
:100220002046BDE81040FFF7A8BF00000048704717
:100230004000002001491820ABBEFEE72600020066
:10024000704721B1026842F00102026004E00268D6
:100250004FF6FE731A400260704710B50022026824
:1002600047F6F0739A430C6A8B6823430C69234367
:100270004C6923438C692343CC6923434C6A234351
:100280008C6A23431A430260CB6843600B68836027
:100290004B68C36010BD2DE9F041024600250026E1
:1002A000002000230024002791F803C00CF00F0564
:1002B00091F803C00CF0100CBCF1000F03D091F8C2
:1002C00002C04CEA050591F800C0BCF1000F31D026
:1002D000146800202BE04FF0010C0CFA00F3B1F889
:1002E00000C00CEA03069E4220D183004FF00F0CA1
:1002F0000CFA03F7BC4305FA03FC4CEA040491F83A
:1003000003C0BCF1280F06D14FF0010C0CFA00FC21
:10031000C2F814C00AE091F803C0BCF1480F05D13F
:100320004FF0010C0CFA00FCC2F810C0401C082869
:10033000D1D31460B1F800C0BCF1FF0F34DD5468B4
:1003400000202EE000F1080C4FF0010808FA0CF331
:10035000B1F800C00CEA03069E4221D183004FF0A1
:100360000F0C0CFA03F7BC4305FA03FC4CEA040437
:1003700091F803C0BCF1280F05D100F1080C08FA70
:100380000CF8C2F8148091F803C0BCF1480F07D1F3
:1003900000F1080C4FF0010808FA0CF8C2F81080C0
:1003A000401C0828CED35460BDE8F08129B1064A2C
:1003B00052690243044B5A6104E0034A5269824382
:1003C000014B5A61704700000010024029B1064AF3
:1003D000D2690243044BDA6104E0034AD2698243E2
:1003E000014BDA61704700000010024029B1064A53
:1003F00092690243044B9A6104E0034A9269824382
:10040000014B9A61704700000010024030B5002196
:100410000022002400232D4D6D6805F00C0121B150
:10042000042905D0082923D105E0294D056022E0E3
:10043000274D05601FE0254D6D6805F47012234DB2
:100440006D6805F48034022505EB92421CB9214DFC
:10045000554305600BE01D4D6D6805F400351DB179
:100460001C4D5543056002E0194D5543056002E0FF
:10047000174D056000BF00BF144D6D6805F0F00119
:100480000909154D6B5C0568DD4045600F4D6D68D1
:1004900005F4E061090A104D6B5C4568DD4085603C
:1004A0000A4D6D6805F46051C90A0B4D6B5C4568D7
:1004B000DD40C560054D6D6805F44041890B074D71
:1004C0006B5CC568B5FBF3F5056130BD00100240FB
:1004D00000127A0000093D001600002026000020CE
:1004E00010B500F001F810BD0CB50020019000908F
:1004F0003348006840F480303149086000BF30481C
:10050000006800F4003000900198401C01900098B1
:1005100018B90198B0F5A06FF1D12948006800F42E
:10052000003010B10120009001E000200090009800
:10053000012843D12348006840F010002149086099
:100540000846006820F0030008600846006840F094
:10055000020008601A484068194948600846406827
:1005600048600846406840F480604860084640683B
:1005700020F47C1048600846406840F4E810486069
:100580000846006840F08070086000BF0C480068B2
:1005900000F000700028F9D00948406820F00300FE
:1005A000074948600846406840F00200486000BFC4
:1005B0000348406800F00C000828F9D10CBD000089
:1005C0000010024000200240042808D14FF0E02132
:1005D000096941F004014FF0E022116107E04FF09A
:1005E000E021096921F004014FF0E0221161704718
:1005F00010B51348006840F0010011490860084632
:100600004068104908400E494860084600680E4995
:1006100008400B4908600846006820F48020086004
:100620000846406820F4FE0048604FF41F008860D0
:10063000FFF756FF4FF000600449086010BD00004E
:10064000001002400000FFF8FFFFF6FE08ED00E09A
:1006500021B1828942F40052828104E082894DF600
:10066000FF731A40828170471AB1838A0B438382D9
:1006700002E0838A8B438382704700002DE9F047B4
:1006800086B005460E460024A24600BFA1460027BC
:10069000B08900B100BF2F462C8A4CF6FF70044091
:1006A000F08804432C82AC894EF6F3100440B088E5
:1006B00031890843718908430443AC81AC8A4FF601
:1006C000FF400440B0890443AC8201A8FFF79EFEBE
:1006D0001F48874202D1DDF810A001E0DDF80CA030
:1006E000A88900F4004040B10AEBCA0000EB0A10F0
:1006F00031684900B0FBF1F807E00AEBCA0000EBF3
:100700000A1031688900B0FBF1F86420B8FBF0F002
:1007100004012009642101FB1089A88900F400402C
:1007200040B1322000EBC900B0FBF1F000F007004F
:10073000044308E0322000EB09106421B0FBF1F023
:1007400000F00F0004432C8106B0BDE8F0870000E4
:100750000038014010B56FF00400FFF735FF0A487C
:1007600000680A49B0FBF1F00949087008460078B2
:1007700000EB4001C1EBC0104FF6FF7101EAC00071
:100780000449088010BD00002C00002000127A00EF
:1007900012000020140000200146114A12884A432A
:1007A0004FF0E0235A6100229A611A46126942F022
:1007B00001021A6100BF4FF0E022106900F001024F
:1007C0001AB100F48032002AF5D04FF0E02212690D
:1007D00022F001024FF0E0231A6100229A61704773
:1007E0001400002090B001210520FFF7FFFD01213A
:1007F0004804FFF7EBFD01210846FFF7D7FD18205D
:100800008DF83F000420ADF83C0003208DF83E0039
:100810000FA92A48FFF73FFD04208DF83F0008206C
:10082000ADF83C000FA92548FFF735FD4FF41650F1
:100830000B900020ADF838000C20ADF836000020F9
:10084000ADF83400ADF83200ADF830000BA91C480B
:10085000FFF714FF1A48001D00901A48019010205D
:1008600002900390002004908020059000200690C4
:10087000079008904FF48050099000200A90694634
:100880001148FFF7EAFC012280210D48FFF7ECFE3A
:1008900001210D48FFF7D5FC01210948FFF7D8FEDB
:1008A000FFF758FF08E0012280210548FFF7DCFE32
:1008B0004FF47A60FFF770FFF5E700000008014091
:1008C000004400400000002080000240EC080008C6
:1008D0000000002040000000280100082C0900084A
:1008E0004000002060060000440100084D6F686170
:1008F0006D6D6164205361666172690A00000000D9
:1009000000000000000001020304010203040607C6
:10091000080902040608000000A24A0400000000C2
:0C092000000000000102030406070809A3
:04000005080000ED02
:00000001FF
