:020000040800F2
:100000000813002021030008290300082B0300081F
:100010002D0300082F030008310300080000000032
:10002000000000000000000000000000590200086D
:100030003503000800000000D10200080D0300088D
:100040003B0300083B0300083B0300083B03000898
:100050003B0300083B0300083B0300083B03000888
:100060003B0300083B0300083B0300083B03000878
:100070003B0300083B0300083B0300083B03000868
:100080003B0300083B0300083B0300083B03000858
:100090003B0300083B0300083B0300083B03000848
:1000A0003B0300083B0300083B0300083B03000838
:1000B000710900083B0300083B0300083B030008EC
:1000C0003B0300083B0300083B0300083B03000818
:1000D0003B0300083B0300083B0300083B03000808
:1000E0003B0300083B0300083B0300083B030008F8
:1000F0003B0300083B0300083B0300083B030008E8
:100100003B0300083B0300083B0300083B030008D7
:100110003B0300083B0300083B0300083B030008C7
:100120003B0300083B0300083B0300083B030008B7
:1001300000F002F800F03AF80AA090E8000C8244BF
:100140008344AAF10107DA4501D100F02FF8AFF29C
:10015000090EBAE80F0013F0010F18BFFB1A43F0A5
:1001600001031847581F0000781F0000103A24BFF1
:1001700078C878C1FAD8520724BF30C830C144BF0C
:1001800004680C607047000000230024002500264E
:10019000103A28BF78C1FBD8520728BF30C148BFEA
:1001A0000B6070471FB51FBD10B510BD00F0EEF815
:1001B0001146FFF7F7FF0FB400F00CF80FBC00F08A
:1001C0007BFE00F0D1F803B4FFF7EEFF03BC00F0B4
:1001D000D7F8000004B000F077FE0448002100F0DA
:1001E000C7FE00F083FE00F0BFF8000028000020EA
:1001F00080F309887047EFF309807047684680F301
:10020000098804480078C00714BF0220032080F347
:10021000148870477C200008DFF818C0EFF30583CE
:100220001B0618BF6047EFF31483DB0708BF604766
:1002300000DF70473F100008DFF818C0EFF30583B8
:100240001B0618BF6047EFF31483DB0708BF604746
:1002500000DF70471D120008EFF30980816911F873
:10026000021CF1B990E80F10E047EFF3098C8CE81D
:100270000700144B93E8060091420FD039B12CE9E6
:10028000F00FC1F828C00CB401F05CFB0CBC1A6084
:10029000D2F828C0BCE8F00F8CF309886FF0020E8A
:1002A000704710B5084A1268914209D8074C54F8B3
:1002B000214090E80F10A047EFF3098C8CE80F0065
:1002C00010BD000054000020D8030008D803000827
:1002D00001F00AFA0C4B93E80600914210D0EFF3BC
:1002E000098C2CE9F00FC1F828C00CB401F02AFBEE
:1002F0000CBC1A60D2F828C0BCE8F00F8CF3098857
:100300006FF0020E704700005400002001F0E2FB85
:10031000E0E7000000F092FE01F0DCFBDAE700000D
:100320000948804709480047FEE7FEE7FEE7FEE789
:10033000FEE7FEE7FEE7FEE7FEE7FEE704480549C5
:10034000054A064B704700001109000831010008FA
:10035000080D002008130020080F0020080F0020BF
:1003600000487047A40C002010B50446AFF300808D
:100370002046BDE81040FFF726BF70477047704722
:1003800001491820ABBEFEE7260002007546FFF7C4
:10039000E7FFAE4605006946534620F00700854654
:1003A00018B020B5FFF7CAFFBDE820404FF00006A7
:1003B0004FF000074FF000084FF0000B21F007014D
:1003C000AC46ACE8C009ACE8C009ACE8C009ACE890
:1003D000C0098D4670477047000000002DE9F041CC
:1003E000024600250026002000230024002791F863
:1003F00003C00CF00F0591F803C00CF0100CBCF119
:10040000000F03D091F802C04CEA050591F800C036
:10041000BCF1000F31D0146800202BE04FF0010C2C
:100420000CFA00F3B1F800C00CEA03069E4220D19A
:1004300083004FF00F0C0CFA03F7BC4305FA03FCE2
:100440004CEA040491F803C0BCF1280F06D14FF028
:10045000010C0CFA00FCC2F814C00AE091F803C0C9
:10046000BCF1480F05D14FF0010C0CFA00FCC2F8AA
:1004700010C0401C0828D1D31460B1F800C0BCF1F2
:10048000FF0F34DD546800202EE000F1080C4FF01F
:10049000010808FA0CF3B1F800C00CEA03069E420A
:1004A00021D183004FF00F0C0CFA03F7BC4305FA7F
:1004B00003FC4CEA040491F803C0BCF1280F05D1F9
:1004C00000F1080C08FA0CF8C2F8148091F803C087
:1004D000BCF1480F07D100F1080C4FF0010808FAF1
:1004E0000CF8C2F81080401C0828CED35460BDE838
:1004F000F08101617047000000B589B0012104203E
:1005000000F018F90121084600F004F918208DF8D0
:1005100007000320ADF804008DF8060001A9274864
:10052000FFF75CFF0020ADF81E00ADF81A004FF495
:100530007A60ADF81C0048F69F40ADF8180006A997
:100540004FF0804000F020FB0121880700F038FACE
:100550001C208DF8000001208DF80300684600F093
:10056000A1F801221146900700F04EFA7020ADF874
:1005700008000120ADF80A0040F6B830ADF80E00D2
:100580000220ADF810000020ADF8140002A94FF0D1
:10059000804000F043FA02A94FF0804000F094FA46
:1005A0000821C80600F086FA0821C80600F0DEFA25
:1005B0000121880700F013FA09B000BD00080140CE
:1005C00000B585B00121480400F0A4F80121042001
:1005D00000F0B0F818208DF813000420ADF81000DA
:1005E00003208DF8120004A91348FFF7F7FE04203A
:1005F0008DF813000820ADF8100004A90E48FFF78D
:10060000EDFE4FF4964000900020ADF80C000C2059
:10061000ADF80A000020ADF80800ADF80600ADF80E
:1006200004006946054800F00DFB0121034800F075
:10063000FDFA05B000BD0000000801400044004084
:1006400008B50121082000F075F82020ADF8000061
:1006500010208DF8030003208DF8020069460F4832
:10066000FFF7BCFE4FF400510C48FFF742FF012199
:10067000402000F05FF82020ADF8000010208DF839
:10068000030003208DF8020069460548FFF7A6FE27
:100690004FF400510248FFF72CFF08BD000C014049
:1006A0000018014070B5002100230F22C47804B364
:1006B000154C246804F4E064C4F5E064210AC1F137
:1006C0000403CA40447804FA03F1847814402143B7
:1006D00009010E4C0678A155047804F01F05012489
:1006E000AC4005786D11AD0005F1E025C5F800417D
:1006F00009E0047804F01F050124AC40044D06789D
:10070000761145F8264070BD0CED00E000E400E0F5
:1007100080E100E029B1064AD2690243044BDA6164
:1007200004E0034AD2698243014BDA61704700005A
:100730000010024029B1064A92690243044B9A61B3
:1007400004E0034A92698243014B9A6170470000BA
:100750000010024030B500210022002400232D4D5E
:100760006D6805F00C0121B1042905D0082923D1B9
:1007700005E0294D056022E0274D05601FE0254D6D
:100780006D6805F47012234D6D6805F48034022500
:1007900005EB92421CB9214D554305600BE01D4D00
:1007A0006D6805F400351DB11C4D5543056002E030
:1007B000194D5543056002E0174D056000BF00BFAD
:1007C000144D6D6805F0F0010909154D6B5C056865
:1007D000DD4045600F4D6D6805F4E061090A104D7C
:1007E0006B5C4568DD4085600A4D6D6805F46051BD
:1007F000C90A0B4D6B5C4568DD40C560054D6D68F1
:1008000005F44041890B074D6B5CC568B5FBF3F5FA
:10081000056130BD0010024000127A0000093D0061
:10082000380000204800002010B500F001F810BD8D
:100830000CB50020019000903348006840F48030EF
:100840003149086000BF3048006800F40030009073
:100850000198401C0190009818B90198B0F5A06F5C
:10086000F1D12948006800F4003010B10120009057
:1008700001E0002000900098012843D1234800683F
:1008800040F01000214908600846006820F003008D
:1008900008600846006840F0020008601A48406896
:1008A000194948600846406848600846406840F476
:1008B000806048600846406820F47C104860084624
:1008C000406840F4E81048600846006840F08070D6
:1008D000086000BF0C48006800F000700028F9D0E4
:1008E0000948406820F0030007494860084640680E
:1008F00040F00200486000BF0348406800F00C0070
:100900000828F9D10CBD0000001002400020024070
:1009100010B51348006840F001001149086008460E
:100920004068104908400E494860084600680E4972
:1009300008400B4908600846006820F480200860E1
:100940000846406820F4FE0048604FF41F008860AD
:10095000FFF76AFF4FF000600449086010BD000017
:10096000001002400000FFF8FFFFF6FE08ED00E077
:1009700010B50121880700F03EF8B8B101218807C1
:1009800000F02AF80A4801F031FA0A48006808B96C
:10099000012000E00020074908600748D0F89401D2
:1009A00008B9012000E000200449086010BD0000E3
:1009B00000000020940123420080214294812142C2
:1009C00021B1028842F08002028004E002884FF6E2
:1009D0007F731A4002807047CA430282704721B178
:1009E000028842F00102028004E002884FF6FE73A2
:1009F0001A400280704702460020138A0B400BB158
:100A0000012000E0002070471AB183890B438381E5
:100A100002E083898B4383817047000070B5002416
:100A200000220023058C4FF6FE7635400584028CAB
:100A30008388048B4FF68F752C40B51E2C400D8893
:100A40002C43751E2A400D892A434D882A43144D94
:100A5000A8420BD0134DA84208D0134DA84205D090
:100A6000124DA84202D0124DA84213D14FF6F7758D
:100A70002A404D892A434FF6FB752A408D882A4328
:100A80004FF6FF652B404FF6FF552B408D892B43CA
:100A9000CD892B4383800483CD888586028470BDF5
:100AA000002C01400034014000400140004401405E
:100AB000004801400A460021018B4FF6F7731940A8
:100AC000114301837047000070B500240022002309
:100AD000058C4FF6EF7635400584028C8388048BB5
:100AE00048F6FF752C404FF6FF452C400D884FF619
:100AF000FF7606EA05252C434FF6DF752A400D895F
:100B000006EA05152A434D8806EA05152A43154DC0
:100B1000A84202D0144DA8421DD14FF67F752A403D
:100B20004D894FF6FF7606EA05152A434FF6BF7545
:100B30002A408D8806EA05152A434FF6FF352B40DB
:100B40004FF2FF752B408D8906EA85052B43CD8931
:100B500006EA85052B4383800483CD8805870284BC
:100B600070BD0000002C0140003401400A46002105
:100B7000018B4FF2FF7319404FF6FF7303EA022314
:100B80001943018370470000002202881D4B9842E0
:100B90000ED01D4B98420BD0B0F1804F08D01B4BAC
:100BA000984205D01A4B984202D01A4B984204D171
:100BB0004FF68F731A404B881A43174B984207D051
:100BC000164B984204D04FF6FF431A40CB881A4385
:100BD00002808B8883850B8803850A4B98420BD053
:100BE000094B984208D00E4B984205D00D4B9842C5
:100BF00002D00D4B984201D10B7A038601238382E8
:100C000070470000002C0140003401400004004007
:100C100000080040000C004000100040001400409C
:100C200000400140004401400048014021B1828958
:100C300042F40052828104E082894DF6FF731A402B
:100C4000828170472DE9F04786B005460E460024A4
:100C5000A24600BFA1460027B08900B100BF2F46C1
:100C60002C8A4CF6FF700440F08804432C82AC8937
:100C70004EF6F3100440B088318908437189084367
:100C80000443AC81AC8A4FF6FF400440B089044372
:100C9000AC8201A8FFF75EFD1F48874202D1DDF854
:100CA00010A001E0DDF80CA0A88900F4004040B1DC
:100CB0000AEBCA0000EB0A1031684900B0FBF1F8FA
:100CC00007E00AEBCA0000EB0A1031688900B0FBAC
:100CD000F1F86420B8FBF0F004012009642101FB65
:100CE0001089A88900F4004040B1322000EBC9000F
:100CF000B0FBF1F000F00700044308E0322000EB05
:100D000009106421B0FBF1F000F00F0004432C81C6
:100D100006B0BDE8F08700000038014010B5002A99
:100D200006DA22F00042D21D22F00703102203E06F
:100D3000D21C22F003030C2213B19C188C4201D95F
:100D4000012010BD024401448360C0E90021C91A9A
:100D5000D018884202D810600246F9E700201060DF
:100D600010BD000005490978002905D000684FF63C
:100D7000FF71DFF80CC000DF704700004D0000205D
:100D80008116000804490978002903D00068DFF8BB
:100D90000CC000DF704700004D000020A9150008BE
:100DA00008480068C0010BD507480068C00707D095
:100DB000054880380068002802DA044901200870DC
:100DC00070470000FCED00E0800E00E070000020A5
:100DD0004FF06042D36F002BFCD0036BD367D36F0F
:100DE000002BFCD0C07840EA0120A2F87C007047BC
:100DF0004FF06041CA6F002AFCD081F87C00704738
:100E00000EB5802200B109B110460AE0017801292F
:100E1000FAD101A900F020F8042801D0002000E058
:100E20001020DDE9011203B000BD70B50D460400CD
:100E300003D012B92078012801D0802070BD20464F
:100E400000F0ACFA28B12946204600F02EF8002028
:100E500070BD812070BD000010B504468089002857
:100E600022D0608904EB8000006908606078022865
:100E700005D10021204600F085FC00F073FC04F150
:100E80000C0000BFD0E85F1F491E8AB2C0E8512F96
:100E90000029F7D16089401C80B26081E1898842D5
:100EA00001D100206081042010BD10B500F06AFC63
:100EB000BDE8104000F056BCFFF7C2FBFFF780FB17
:100EC000FFF71AFB00BFFEE7EFF3058008B18220B1
:100ED0007047EFF31480C00703D0DFF80CC000DFC9
:100EE000704700F097BF0000151E000888B0EFF3B0
:100EF000058010B1822008B07047EFF3148010F025
:100F00000301134806D001291BD0022911D003295F
:100F100019D113E008A981F309880078C0070BD024
:100F20005FF0020080F31488BFF34F8FBFF36F8F21
:100F300009E00078C00706D10320F3E70078C00776
:100F400001D0FF20D7E7DFF80CC000DFD3E70000B7
:100F50007C200008851E0008EFF305820AB1FFF728
:100F60004FBFDFF808C000DF70470000F11E000827
:100F7000EFF305820AB100207047EFF31482064BAD
:100F800002F001025B781A4303D0DFF810C000DFE3
:100F9000704700F0CBBF00004C0000202D1F000860
:100FA000DFF80CC000DFDFF80CC000DFFEE7000058
:100FB0009D1F0008B91F0008DFF804C000DF70475C
:100FC000F11F0008094C4FF0FF3529462068FFF754
:100FD000C3FF02460846102AF7D1FFF7EDFF0028AD
:100FE000F3D0024608469047EFE7000018000020C3
:100FF000012806D0022805D0032804D0042804D1F3
:1010000002E002E001E000E000BF00BF00BFFEE739
:1010100000BFFEE7074801684FF0E0204161002172
:101020008161072101610448016841F07F4101604D
:10103000401770477820000820ED00E0704750E826
:10104000001F31B10B6840E80032002AF7D1084692
:101050007047BFF32F8FFAE710B568B161B10B315C
:1010600021F00302016844680B1A1B1B934205D24E
:10107000084609680029F5D1002010BD210007D0DD
:1010800021180368C1E90032016001F1080010BDB8
:101090004260083010BD000070B50D46002812D027
:1010A0004FF6FF71084C884204D222680146104670
:1010B00000F096FB20684570044800F0D9F8BDE8C0
:1010C000704000F051BC70BD54000020740C002032
:1010D0000F4810B50D4942680E480B6800689342EE
:1010E00004D00A60CB88421E1A448A808A8880B263
:1010F00082420AD100200860054800F0B9F8014694
:10110000BDE81040024800F08FBB10BD6800002011
:10111000740C00206400002070B5194DE8680028A8
:101120002CD0A88A401EA882002621E0A06838B1F1
:1011300061684160606810B1A16881606660A66006
:101140000F482146183800F06FFBA08AA88260780B
:10115000042804D10B49E08A09880844A0820120B0
:101160006070E068E860E06808B10561E6602661EB
:10117000A88A002802D1EC68002CD7D170BD0000ED
:101180008C0C00206400002070B504000FD00D4DC1
:10119000A17801262868827891420CD900F060FB82
:1011A000286846702046BDE8704000F0DDBB064868
:1011B00000F05EF8F7E766702146BDE8704002482F
:1011C00000F032BB54000020740C002010B504461F
:1011D000008B084320836278618B062A18D0052A89
:1011E00019D1084217D001EA0002628388432083A4
:1011F000204600F060FB01206070628B08212046D1
:1012000000F055FB2146BDE81040034800F00CBB40
:1012100031EA0002EAD010BD740C0020814202D3F2
:1012200042688A4201D80120704702680A60BFF311
:101230005F8F50E8003F0A689A42F6D140E80012FA
:10124000002AF2D10020704768B161B1002208394C
:1012500002E00246006830B18842FAD12AB1006843
:101260001060002070470120704700214160F8E7BE
:101270000146406842684A600B780022022B05D084
:10128000012B03D0032B01D04260704743680BB1A0
:101290009960426082607047810700D000207047EB
:1012A00070B5044600201546207001226270A170BE
:1012B00084F824106060A060E06020612062A08259
:1012C000E0822083608384F82500E08C18B905480B
:1012D000FFF7B5FEE06229462046BDE8704000F009
:1012E0001DB80000F001002008B1082901D201203A
:1012F00070470144091F002201600A6042601046E5
:101300007047000003480021016003490988C1803B
:1013100070470000680000206C20000870B5C28C87
:101320001C4D930802D12A88C2F38D03C26A02EBD6
:101330008302540700D5121F4FF0807442E9021453
:1013400000242646B2F1400242F82460641C0E2CB0
:10135000FAD3C4691462826201632968C90014D592
:10136000112B12D94FF0FF31103B11EB53014FF00D
:10137000CC3305D042F8043C42F8083D491EF9D16F
:10138000C16A121F8A4200D91360C06A0249016013
:1013900070BD000068200008A52E5AE2C18980892E
:1013A000081A704701220270002242708270426067
:1013B00002814281103982818908C1817047000011
:1013C0002DE9F041044640680E464FF0000804F154
:1013D0000C05E8B36078012701283ED0022813D01D
:1013E00003285CD10846FFF72AFE050057D02046A7
:1013F000FFF73EFF0446294600F056FA6770204684
:1014000000F059FA214621E02046FFF731FF064659
:10141000002100F049FA2189F06904EB810108619B
:10142000D5E85F0F401C81B2C5E8501F0028F7D1F6
:101430002089401C80B22081E189884201D1A4F832
:1014400008807770304600F036FA3146174800E0E1
:101450000CE0BDE8F04100F0E7B92046FFF708FFD7
:1014600004463246102100F022FAC7E7A089E1893C
:10147000884216D2208904EB80000661D5E85F0F10
:10148000401C81B2C5E8501F0028F7D12089401CBC
:1014900080B22081E189884201D1A4F80880BDE8AA
:1014A000F081BDE8F0410320FFF7A2BD740C0020DD
:1014B00070B50446808915460026C0B3608904EBE8
:1014C0008000006908606089401C80B26081E18909
:1014D000884200D16681606810B1607802280BD024
:1014E00014F10C04D4E85F0F401E81B2C4E8501F11
:1014F0000028F7D1002070BD2046FFF7B9FE054651
:10150000002100F0D1F92189E86904EB810108612B
:101510002089401C80B22081E189884200D1268147
:10152000284600F0C8F92846FFF72EFEE2E7FFE75D
:101530003DB10B48626801682AB1204600F074F999
:1015400008E0012070BD616001684E600068846041
:101550000120607008212846FFF79EFDF1E700009A
:1015600054000020002814D0411C13D00C4A4FF620
:10157000FE7190420CD800EB4002C2EBC012094849
:10158000036803EBC202521EB2FBF3F0884204D997
:10159000084670474FF6FF70704780B270470000F2
:1015A00000093D00882000082DE9F04104464088EC
:1015B00020B1314DA1682A68914202D0FF20BDE8D8
:1015C000F081401E0004000C608053D12968086A35
:1015D000A04209D1E068086208E0C268A24202D1D4
:1015E000E268C26002E010460028F6D191F82400BB
:1015F0000A6A06E053681BB19B78834200D91846FB
:10160000D268002AF6D18870DFF870806168012600
:1016100011B32046FFF72CFE0746002100F044F9E5
:10162000384600F048F96680A760386AE0603C629E
:101630002968D8F804008A788078824201D3384635
:1016400016E00E4800F0F0F839460C4800F0ECF8CF
:10165000286846707E700AE0D8F804108A782968F5
:10166000824207D9054800F0DFF82868467000205C
:10167000FFF78AFD0020A2E754000020740C002030
:1016800070B5184D0E4604464188286839B1A168E6
:10169000814209D16088401C6080002070BDA0603C
:1016A000016AE1600462F5E776B18A788078824267
:1016B00003D28870A06800F0DDF8606830B1204681
:1016C000296800F0B1F808E0012070BD286860606A
:1016D0002968002048602868846009213046FFF7A7
:1016E000DBFCF1E75400002070B51B4801210268C3
:1016F0005170006800F0B4F8184D6C7818E000BF25
:1017000005EBC40148680278EAB1012A20D000F054
:10171000FFF8E878641C844200D100240F48801C44
:10172000D0E84F1F491EC9B2C0E8421F002AF7D1B6
:10173000A8780028E4D16C700948FFF799FDBDE84E
:10174000704000F011B9098989B2FFF73FFDE0E769
:101750008968FFF735FEDCE75400002060080020B0
:10176000740C00200548017811B1012141707047C7
:1017700003494FF080500860704700005C00002073
:1017800004ED00E0F0B4154DAB1CEE784FEA050710
:10179000D3E84F2FB24202D1BFF32F8F11E0521C7A
:1017A000D4B2C3E8424F002AF2D100BFD7E84F2F8E
:1017B000541CB44200D10024E4B2C7E8434F002BCC
:1017C000F4D1EB78934205D905EBC202C2E90101DD
:1017D000F0BC7047F0BC0220FFF70ABC6008002094
:1017E000104A10B5D368ABB113469B8A03E08CB1A5
:1017F0002246A48A2344D4688B42F8D3C460D060C4
:101800000261C46804B12061591A8182908A401A29
:10181000908210BD0024C460D060C91A0261918218
:10182000848210BD8C0C002030B502780023022A7F
:1018300003D0012A01D0032A00D101238C7800E0D3
:101840001046426812B19578A542F9D24A604160CB
:101850001BB102B19160886030BD0020FBE7000041
:1018600003494A6842600022826048607047000075
:10187000740C002010B5836804462BB960780128E9
:101880000ED1084B03E09B6818780028FBD0204657
:1018900000F026F82146BDE810401846FFF7C4BF07
:1018A00010BD0000740C0020806A01627047806ADD
:1018B000C0E90812704710B5016900290ED0C2684E
:1018C000CA60C36800223BB18B8A848A23448B821E
:1018D000C3681961C26000E08A82026110BD000025
:1018E000816839B142684A604168002901D0806846
:1018F00088607047054906E04A68824202D1406824
:101900004860704711460029F6D17047740C0020DA
:1019100010B5416881B1FFF7ABFC0446FFF7CBFF80
:101920000120607001462046FFF7BEFF2146BDE85A
:1019300010400348FFF778BF4188491C418010BD23
:10194000740C002006480068D0E90A10814203D3D5
:1019500000680449884202D00120FFF749BB704764
:1019600054000020A52E5AE2074902224860427026
:10197000064A1278002A05D006C98A4202D0C078E9
:10198000FFF736BA704700005400002070000020B6
:1019900070B5FFF705FA00200446204A204902E00E
:1019A00042F82040401C0B889842F9D31D4834224D
:1019B00001881D48FFF7B2F91C48008880B240F04A
:1019C00000421B4801681B48FFF7A8F91A48082283
:1019D00001881A480068FFF7A1F9194DFF20194A3C
:1019E000E870EC8400212846FFF75AFC16480421D1
:1019F0000170446015480170C46004618482144819
:101A00001549056002206870124804704470097816
:101A1000C170BDE87040FFF775BC0000E40800200D
:101A2000642000089020000878000020682000084A
:101A300094200008F0010020B820000820000020B9
:101A4000400C002011100008740C00208C0C0020A9
:101A500054000020600800209C2000081B4810B59E
:101A6000016841F47F01016000684FF07F4101EAA5
:101A700000201649C0431439B0FA80F00968C0F15B
:101A80000800C1F30221814200D3481C0F49091FFD
:101A90000B686FF08072824063F317020A60FFF7F1
:101AA000B9FA0B49002808600EDB00F1E021FF22A3
:101AB00081F8002400F01F020121914040098000BC
:101AC00000F1E020C0F8001110BD000020ED00E0A2
:101AD000600000200C4810B50268012151700068B8
:101AE000FFF7BEFEFFF7F4FA08480168491C0160E1
:101AF000FFF712FB00F088FA0548FFF7B9FBBDE8D5
:101B00001040FFF731BF00005400002064000020A7
:101B1000740C0020002805D0810702D1017800292B
:101B200000D000207047000030B50B4C00236268E5
:101B300005E095688D4204D813461268491B002AB7
:101B4000F7D10260816012B19568691A91600BB19A
:101B5000186030BD606030BD4C0000202DE9F041C0
:101B60001E46174680460D4611F0FF0F00D14D1C52
:101B70001848FFF764FA041E16D0280AE762E084CA
:101B8000E9B242462046E661FFF78AFB012512488A
:101B9000124905E000EB850252F8042C32B16D1CAD
:101BA0000A889542F6D90020BDE8F081002DFAD0D0
:101BB00000EB850040F8044C0948E570007818B146
:101BC00001212046FFF704F92046FFF7DDFA2846F9
:101BD000EAE7000078000020E40800206420000804
:101BE000700000202DE9F05F584DDFF85891DFF8C4
:101BF000588129684FF0010A002618B1CA78AB460F
:101C0000824243D14E70FEF7F6FA29688862FFF7E8
:101C100099FE2868046A1FE06068C0B12046FFF79B
:101C200027FB07460021FFF73FFE3846FFF743FE3C
:101C300087F801A039464648FFF7F6FDE168A4F8A9
:101C400002A0A760386AE0603C620C4604E0E068ED
:101C50006680A660E6600446002CDDD12868C27864
:101C600008EB820141F8046CC16A3A48FFF7D6FAE2
:101C70002868C66299F8001011B10021FFF7A8F892
:101C800035482968FFF7CAFA2E6056E033490988BB
:101C900088420CD808EB800858F8045C3DB128460F
:101CA000FFF71EFE2846FFF706FE2C6A22E0FF2003
:101CB000BDE8F09F6068C0B12046FFF7D9FA07463B
:101CC0000021FFF7F1FD3846FFF7F5FD87F801A089
:101CD00039461F48FFF7A8FDE168A4F802A0A760F5
:101CE000386AE0603C620C4604E0E0686680A6600A
:101CF000E6600446002CDDD148F8046C1548E96A1A
:101D0000FFF78CFAEE6299F8000018B1002128461E
:101D1000FFF75EF829461048FFF780FA0C48DBF819
:101D2000001040688B7882789A4209D981F801A026
:101D30000748DBF80010FFF777FD0020FFF724FAD3
:101D40000020B5E770000020E408002054000020C7
:101D5000740C0020F00100207800002064200008AE
:101D600070B51A4D80B11A4A128890421FD8194A8C
:101D700002EB800050F8044CCCB1A17084F8241020
:101D80002868A04205D014E028688170286880F88F
:101D90002410114840688078884215D90E48296877
:101DA000FFF742FD29680120487000200AE0FF206B
:101DB00070BD2046FFF75EFD6078012804D106481B
:101DC000FFF756FAFFF7E0F9002070BD540000203D
:101DD00064200008E4080020740C00200248006819
:101DE000002800D0C0787047540000200BE0017834
:101DF000074A118000BF0649091F098801F0400108
:101E00000029F8D0401C01780029F0D1704700006B
:101E10000444004010B5134C207860B912484007C4
:101E200005D1124801681048FFF75EFA08B1852015
:101E300010BDFFF7ADFD0E49FF20096888702078BE
:101E400058B900210B4800F041F80B490860002107
:101E50000A4800F06BF80A49086001202070002051
:101E6000607010BD4C000020B006002098200008D3
:101E700054000020B020000818000020A020000816
:101E80001400002070B50F4D687808B1002070BDB7
:101E90000D4C206890F824100020FFF761FF2068A7
:101EA000C178FF2903D1816A203181F309886168F3
:101EB00011B9606000202060FFF7D0FD012068703C
:101EC000E4E700004C0000205400002010B504009E
:101ED00005D0216819B1606808B102780AB1002004
:101EE00010BD8900103189B2FFF75CFA606810BD3F
:101EF0003EB504000D464FF0800012D02178012934
:101F00000FD12846FFF72EFB0246204601A9FFF716
:101F1000CFFA012801D0102003E00DB1402000E0ED
:101F20000020DDE9011203B030BD000070B50E469F
:101F300004002BD0206848B3B4F9040010F1030F5B
:101F400024DB032822DCE16829B11148FFF784F87B
:101F500005001BD000E00025B4F90400E168001D75
:101F600040EA012133462A462068FFF7F7FD40B1D9
:101F7000084901EB8000084950F8040C826A51635B
:101F800070BD1DB129460248FFF75EF9002070BD03
:101F9000B0060020E4080020A10F000810B5FFF7EC
:101FA0001DFF002804D0034901EB800050F8040C09
:101FB00010BD0000E408002010B5FFF7ABFD18B11C
:101FC000C18C19B1C46A02E0802010BD0024C07821
:101FD000FFF708FEFF2806D01CB121460348FFF793
:101FE00033F9002010BD812010BD0000B006002094
:101FF00010B5FFF751F920B141690A68016910462F
:1020000010BD0020014610BD2DE9F041134E74684B
:10201000002C1CD0A068124F401E4FF00108A06099
:1020200012E0254624687460002229463868FEF7CD
:10203000FCFE10B10420FEF7DBFF6879012808D010
:1020400085F80480002C02D0A0680028E9D0BDE803
:10205000F0812846E968FFF767FDF3E74C000020B0
:102060001800002007000000C80002010500010060
:10207000001BB7000C000000DF2E00000100000074
:102080000200010050000400E8030000000000000E
:1020900078010000C0040000B00100001000000042
:1020A000C50F00080200000001000000C800000089
:1020B000040000000009002000000000DC200008EF
:1020C00000000020740000006C010008502100088E
:1020D000740000209412000088010008416C6920FF
:1020E00053616661726920536F7572690A0000005E
:1020F00000000000000000000000000000000000E0
:1021000000000000B90E00080000000001000000FF
:10211000C8000000000000000102030401020304E3
:10212000060708090204060800000000000000007D
:10213000000000000000000000000000000000009F
:10214000000000000000000000000000000000008F
:0400000508000131BD
:00000001FF
