:020000040800F2
:100000000813002021030008290300082B0300081F
:100010002D0300082F030008310300080000000032
:10002000000000000000000000000000590200086D
:100030003503000800000000D10200080D0300088D
:100040003B0300083B0300083B0300083B03000898
:100050003B0300083B0300083B0300083B03000888
:100060003B0300083B0300083B0300083B03000878
:100070003B0300083B0300083B0300083B03000868
:100080003B0300083B0300083B0300083B03000858
:100090003B0300083B0300083B0300083B03000848
:1000A0003B0300083B0300083B0300083B03000838
:1000B0003B0300083B0300083B0300083B03000828
:1000C0003B0300083B0300083B0300083B03000818
:1000D0003B0300083B030008E90700083B03000856
:1000E0003B0300083B0300083B0300083B030008F8
:1000F0003B0300083B0300083B0300083B030008E8
:100100003B0300083B0300083B0300083B030008D7
:100110003B0300083B0300083B0300083B030008C7
:100120003B0300083B0300083B0300083B030008B7
:1001300000F002F800F03AF80AA090E8000C8244BF
:100140008344AAF10107DA4501D100F02FF8AFF29C
:10015000090EBAE80F0013F0010F18BFFB1A43F0A5
:1001600001031847741C0000941C0000103A24BFBF
:1001700078C878C1FAD8520724BF30C830C144BF0C
:1001800004680C607047000000230024002500264E
:10019000103A28BF78C1FBD8520728BF30C148BFEA
:1001A0000B6070471FB51FBD10B510BD00F0EEF815
:1001B0001146FFF7F7FF0FB400F00CF80FBC00F08A
:1001C000D5FC00F0D1F803B4FFF7EEFF03BC00F05C
:1001D000D7F8000004B000F019FD0448002100F039
:1001E00069FD00F025FD00F0BFF8000018000020B8
:1001F00080F309887047EFF309807047684680F301
:10020000098804480078C00714BF0220032080F347
:1002100014887047981D0008DFF818C0EFF30583B5
:100220001B0618BF6047EFF31483DB0708BF604766
:1002300000DF7047830D0008DFF818C0EFF3058377
:100240001B0618BF6047EFF31483DB0708BF604746
:1002500000DF7047610F0008EFF30980816911F832
:10026000021CF1B990E80F10E047EFF3098C8CE81D
:100270000700144B93E8060091420FD039B12CE9E6
:10028000F00FC1F828C00CB401F0FEF90CBC1A60E4
:10029000D2F828C0BCE8F00F8CF309886FF0020E8A
:1002A000704710B5084A1268914209D8074C54F8B3
:1002B000214090E80F10A047EFF3098C8CE80F0065
:1002C00010BD000058000020D8030008D803000823
:1002D00001F0ACF80C4B93E80600914210D0EFF31C
:1002E000098C2CE9F00FC1F828C00CB401F0CCF94E
:1002F0000CBC1A60D2F828C0BCE8F00F8CF3098857
:100300006FF0020E704700005800002001F084FAE0
:10031000E0E7000000F034FD01F07EFADAE70000CB
:100320000948804709480047FEE7FEE7FEE7FEE789
:10033000FEE7FEE7FEE7FEE7FEE7FEE704480549C5
:10034000054A064B70470000890700083101000884
:10035000080D002008130020080F0020080F0020BF
:1003600000487047A40C002010B50446AFF300808D
:100370002046BDE81040FFF726BF70477047704722
:1003800001491820ABBEFEE7260002007546FFF7C4
:10039000E7FFAE4605006946534620F00700854654
:1003A00018B020B5FFF7CAFFBDE820404FF00006A7
:1003B0004FF000074FF000084FF0000B21F007014D
:1003C000AC46ACE8C009ACE8C009ACE8C009ACE890
:1003D000C0098D4670477047000000002DE9F041CC
:1003E000024600250026002000230024002791F863
:1003F00003C00CF00F0591F803C00CF0100CBCF119
:10040000000F03D091F802C04CEA050591F800C036
:10041000BCF1000F31D0146800202BE04FF0010C2C
:100420000CFA00F3B1F800C00CEA03069E4220D19A
:1004300083004FF00F0C0CFA03F7BC4305FA03FCE2
:100440004CEA040491F803C0BCF1280F06D14FF028
:10045000010C0CFA00FCC2F814C00AE091F803C0C9
:10046000BCF1480F05D14FF0010C0CFA00FCC2F8AA
:1004700010C0401C0828D1D31460B1F800C0BCF1F2
:10048000FF0F34DD546800202EE000F1080C4FF01F
:10049000010808FA0CF3B1F800C00CEA03069E420A
:1004A00021D183004FF00F0C0CFA03F7BC4305FA7F
:1004B00003FC4CEA040491F803C0BCF1280F05D1F9
:1004C00000F1080C08FA0CF8C2F8148091F803C087
:1004D000BCF1480F07D100F1080C4FF0010808FAF1
:1004E0000CF8C2F81080401C0828CED35460BDE838
:1004F000F081000070B5002100230F22C47804B3FE
:10050000154C246804F4E064C4F5E064210AC1F1E8
:100510000403CA40447804FA03F184781440214368
:1005200009010E4C0678A155047804F01F0501243A
:10053000AC4005786D11AD0005F1E025C5F800412E
:1005400009E0047804F01F050124AC40044D06784E
:10055000761145F8264070BD0CED00E000E400E0A7
:1005600080E100E029B1064AD2690243044BDA6116
:1005700004E0034AD2698243014BDA61704700000C
:100580000010024029B1064A92690243044B9A6165
:1005900004E0034A92698243014B9A61704700006C
:1005A0000010024030B500210022002400232D4D10
:1005B0006D6805F00C0121B1042905D0082923D16B
:1005C00005E0294D056022E0274D05601FE0254D1F
:1005D0006D6805F47012234D6D6805F480340225B2
:1005E00005EB92421CB9214D554305600BE01D4DB2
:1005F0006D6805F400351DB11C4D5543056002E0E2
:10060000194D5543056002E0174D056000BF00BF5E
:10061000144D6D6805F0F0010909154D6B5C056816
:10062000DD4045600F4D6D6805F4E061090A104D2D
:100630006B5C4568DD4085600A4D6D6805F460516E
:10064000C90A0B4D6B5C4568DD40C560054D6D68A2
:1006500005F44041890B074D6B5CC568B5FBF3F5AC
:10066000056130BD0010024000127A0000093D0013
:10067000280000203800002010B500F001F810BD5F
:100680000CB50020019000903348006840F48030A1
:100690003149086000BF3048006800F40030009025
:1006A0000198401C0190009818B90198B0F5A06F0E
:1006B000F1D12948006800F4003010B10120009009
:1006C00001E0002000900098012843D123480068F1
:1006D00040F01000214908600846006820F003003F
:1006E00008600846006840F0020008601A48406848
:1006F000194948600846406848600846406840F428
:10070000806048600846406820F47C1048600846D5
:10071000406840F4E81048600846006840F0807087
:10072000086000BF0C48006800F000700028F9D095
:100730000948406820F003000749486008464068BF
:1007400040F00200486000BF0348406800F00C0021
:100750000828F9D10CBD0000001002400020024022
:10076000042808D14FF0E021096941F004014FF05D
:10077000E022116107E04FF0E021096921F0040156
:100780004FF0E0221161704710B51348006840F047
:1007900001001149086008464068104908400E49A8
:1007A0004860084600680E4908400B490860084642
:1007B000006820F4802008600846406820F4FE00AD
:1007C00048604FF41F008860FFF756FF4FF000604D
:1007D0000449086010BD0000001002400000FFF84E
:1007E000FFFFF6FE08ED00E010B52021084800F0FC
:1007F00026F801280BD1064800F0C0F8C4B2202129
:10080000034800F007F82146014800F0BCF810BD8D
:100810000044004001F40072B2F5007F00D100BF37
:10082000CA430280704721B1828942F4005282811A
:1008300004E082894DF6FF731A40828170470246B8
:100840000020B1F5007F00D100BF13880B400BB131
:10085000012000E000207047F0B503460024002688
:100860000025002040F66A17B94200D100BF1846A3
:10087000C1F3421401F01F06012707FA06F5012C07
:1008800001D10C3004E0022C01D1103000E0143012
:100890001AB107682F43076002E00768AF4307609B
:1008A000F0BD00002DE9F04786B005460E46002455
:1008B000A24600BFA1460027B08900B100BF2F4665
:1008C0002C8A4CF6FF700440F08804432C82AC89DB
:1008D0004EF6F3100440B08831890843718908430B
:1008E0000443AC81AC8A4FF6FF400440B089044316
:1008F000AC8201A8FFF756FE1F48874202D1DDF8FF
:1009000010A001E0DDF80CA0A88900F4004040B17F
:100910000AEBCA0000EB0A1031684900B0FBF1F89D
:1009200007E00AEBCA0000EB0A1031688900B0FB4F
:10093000F1F86420B8FBF0F004012009642101FB08
:100940001089A88900F4004040B1322000EBC900B2
:10095000B0FBF1F000F00700044308E0322000EBA8
:1009600009106421B0FBF1F000F00F0004432C816A
:1009700006B0BDE8F08700000038014001468888D5
:10098000C0F308007047C1F308028280704710B5B9
:10099000002A06DA22F00042D21D22F007031022BC
:1009A00003E0D21C22F003030C2213B19C188C42EA
:1009B00001D9012010BD024401448360C0E9002137
:1009C000C91AD018884202D810600246F9E7002000
:1009D000106010BD05490978002905D000684FF660
:1009E000FF71DFF80CC000DF7047000051000020ED
:1009F000C513000804490978002903D00068DFF80E
:100A00000CC000DF7047000051000020ED1200080C
:100A100008480068C0010BD507480068C00707D028
:100A2000054880380068002802DA0449012008706F
:100A300070470000FCED00E0800E00E07400002034
:100A40004FF06042D36F002BFCD0036BD367D36FA2
:100A5000002BFCD0C07840EA0120A2F87C0070474F
:100A60004FF06041CA6F002AFCD081F87C007047CB
:100A700010B56FF00400FFF773FE0A4800680A49DA
:100A8000B0FBF1F0094908700846007800EB40011E
:100A9000C1EBC0104FF6FF7101EAC00004490880A5
:100AA00010BD00003C00002000127A000000002071
:100AB000020000200EB5802200B109B110460AE004
:100AC00001780129FAD101A900F020F8042801D009
:100AD000002000E01020DDE9011203B000BD70B578
:100AE0000D46040003D012B92078012801D08020DF
:100AF00070BD204600F0F4FA28B12946204600F0E7
:100B00002EF8002070BD812070BD000010B5044695
:100B10008089002822D0608904EB80000069086089
:100B20006078022805D10021204600F0CDFC00F0BD
:100B3000BBFC04F10C0000BFD0E85F1F491E8AB265
:100B4000C0E8512F0029F7D16089401C80B2608134
:100B5000E189884201D100206081042010BD10B5D8
:100B600000F0B2FCBDE8104000F09EBC86B0012150
:100B70004804FFF7F7FC01210420FFF703FD1820CC
:100B80008DF817000420ADF8140003208DF816002E
:100B900005A91C48FFF722FC04208DF81700082047
:100BA000ADF8140005A91748FFF718FC4FF496405C
:100BB00001900020ADF810000C20ADF80E000020D0
:100BC000ADF80C00ADF80A00ADF8080001A90E4818
:100BD000FFF768FE26208DF8000001208DF8030045
:100BE0006846FFF787FC012240F225510648FFF7CF
:100BF00033FE01210448FFF716FEFFF739FF00BF5F
:100C0000FEE700000008014000440040EFF30580CB
:100C100008B182207047EFF31480C00703D0DFF8DB
:100C20000CC000DF704700F083BF0000311B0008DC
:100C300088B0EFF3058010B1822008B07047EFF361
:100C4000148010F00301134806D001291BD002299B
:100C500011D0032919D113E008A981F3098800787C
:100C6000C0070BD05FF0020080F31488BFF34F8FF2
:100C7000BFF36F8F09E00078C00706D10320F3E7C8
:100C80000078C00701D0FF20D7E7DFF80CC000DFF5
:100C9000D3E70000981D0008A11B0008EFF30582B0
:100CA0000AB1FFF707BFDFF808C000DF7047000098
:100CB0000D1C0008EFF305820AB100207047EFF326
:100CC0001482064B02F001025B781A4303D0DFF86E
:100CD00010C000DF704700F0B7BF000050000020D8
:100CE000491C0008DFF80CC000DFDFF80CC000DF93
:100CF000FEE70000B91C0008D51C0008DFF804C09E
:100D000000DF70470D1D0008094C4FF0FF352946E4
:100D10002068FFF7C3FF02460846102AF7D1FFF705
:100D2000EDFF0028F3D0024608469047EFE70000A9
:100D300008000020012806D0022805D0032804D08E
:100D4000042804D102E002E001E000E000BF00BF9F
:100D500000BFFEE700BFFEE7074801684FF0E02054
:100D6000416100218161072101610448016841F06E
:100D70007F41016040177047941D000820ED00E09E
:100D8000704750E8001F31B10B6840E80032002A7C
:100D9000F7D108467047BFF32F8FFAE710B568B157
:100DA00061B10B3121F00302016844680B1A1B1B6F
:100DB000934205D2084609680029F5D1002010BDEC
:100DC000210007D021180368C1E90032016001F158
:100DD000080010BD4260083010BD000070B50D461F
:100DE000002812D04FF6FF71084C884204D22268C6
:100DF0000146104600F096FB20684570044800F05C
:100E0000D9F8BDE8704000F051BC70BD580000201A
:100E1000740C00200F4810B50D4942680E480B684D
:100E20000068934204D00A60CB88421E1A448A802C
:100E30008A8880B282420AD100200860054800F00A
:100E4000B9F80146BDE81040024800F08FBB10BD64
:100E50006C000020740C00206800002070B5194D53
:100E6000E86800282CD0A88A401EA882002621E02D
:100E7000A06838B161684160606810B1A1688160A4
:100E80006660A6600F482146183800F06FFBA08A04
:100E9000A8826078042804D10B49E08A09880844B4
:100EA000A08201206070E068E860E06808B1056138
:100EB000E6602661A88A002802D1EC68002CD7D110
:100EC00070BD00008C0C00206800002070B504008C
:100ED0000FD00D4DA17801262868827891420CD957
:100EE00000F060FB286846702046BDE8704000F0C6
:100EF000DDBB064800F05EF8F7E766702146BDE806
:100F00007040024800F032BB58000020740C0020F2
:100F100010B50446008B084320836278618B062A53
:100F200018D0052A19D1084217D001EA00026283BD
:100F300088432083204600F060FB01206070628BB4
:100F40000821204600F055FB2146BDE8104003482B
:100F500000F00CBB31EA0002EAD010BD740C002096
:100F6000814202D342688A4201D801207047026858
:100F70000A60BFF35F8F50E8003F0A689A42F6D1DB
:100F800040E80012002AF2D10020704768B161B138
:100F90000022083902E00246006830B18842FAD1E6
:100FA0002AB10068106000207047012070470021BE
:100FB0004160F8E70146406842684A600B780022C9
:100FC000022B05D0012B03D0032B01D042607047C8
:100FD00043680BB19960426082607047810700D01E
:100FE0000020704770B5044600201546207001228D
:100FF0006270A17084F824106060A060E0602061DD
:101000002062A082E0822083608384F82500E08C47
:1010100018B90548FFF7B5FEE06229462046BDE84D
:10102000704000F01DB80000F001002008B1082950
:1010300001D2012070470144091F002201600A60AB
:1010400042601046704700000348002101600349D8
:101050000988C180704700006C000020881D0008CE
:1010600070B5C28C1C4D930802D12A88C2F38D033F
:10107000C26A02EB8302540700D5121F4FF080743E
:1010800042E9021400242646B2F1400242F82460EC
:10109000641C0E2CFAD3C46914628262016329684D
:1010A000C90014D5112B12D94FF0FF31103B11EBB1
:1010B00053014FF0CC3305D042F8043C42F8083DD0
:1010C000491EF9D1C16A121F8A4200D91360C06A51
:1010D0000249016070BD0000841D0008A52E5AE27F
:1010E000C1898089081A704701220270002242706B
:1010F0008270426002814281103982818908C181F7
:10110000704700002DE9F041044640680E464FF05C
:10111000000804F10C05E8B36078012701283ED0EF
:10112000022813D003285CD10846FFF72AFE0500E9
:1011300057D02046FFF73EFF0446294600F056FAF6
:101140006770204600F059FA214621E02046FFF75B
:1011500031FF0646002100F049FA2189F06904EBCD
:1011600081010861D5E85F0F401C81B2C5E8501FBE
:101170000028F7D12089401C80B22081E189884273
:1011800001D1A4F808807770304600F036FA314675
:10119000174800E00CE0BDE8F04100F0E7B9204658
:1011A000FFF708FF04463246102100F022FAC7E795
:1011B000A089E189884216D2208904EB800006616B
:1011C000D5E85F0F401C81B2C5E8501F0028F7D159
:1011D0002089401C80B22081E189884201D1A4F895
:1011E0000880BDE8F081BDE8F0410320FFF7A2BD13
:1011F000740C002070B50446808915460026C0B3E3
:10120000608904EB8000006908606089401C80B23E
:101210006081E189884200D16681606810B16078A0
:1012200002280BD014F10C04D4E85F0F401E81B2E9
:10123000C4E8501F0028F7D1002070BD2046FFF7FA
:10124000B9FE0546002100F0D1F92189E86904EBD7
:10125000810108612089401C80B22081E189884297
:1012600000D12681284600F0C8F92846FFF72EFE57
:10127000E2E7FFE73DB10B48626801682AB120460A
:1012800000F074F908E0012070BD616001684E60F3
:10129000006884600120607008212846FFF79EFDE9
:1012A000F1E7000058000020002814D0411C13D0A2
:1012B0000C4A4FF6FE7190420CD800EB4002C2EB94
:1012C000C0120948036803EBC202521EB2FBF3F0DE
:1012D000884204D9084670474FF6FF70704780B2C5
:1012E0007047000000093D00A41D00082DE9F041F1
:1012F0000446408820B1314DA1682A68914202D04D
:10130000FF20BDE8F081401E0004000C608053D136
:101310002968086AA04209D1E068086208E0C2684A
:10132000A24202D1E268C26002E010460028F6D173
:1013300091F824000A6A06E053681BB19B78834247
:1013400000D91846D268002AF6D18870DFF870807C
:101350006168012611B32046FFF72CFE07460021E5
:1013600000F044F9384600F048F96680A760386A12
:10137000E0603C622968D8F804008A78807882426C
:1013800001D3384616E00E4800F0F0F839460C4814
:1013900000F0ECF8286846707E700AE0D8F8041077
:1013A0008A782968824207D9054800F0DFF8286862
:1013B00046700020FFF78AFD0020A2E758000020B9
:1013C000740C002070B5184D0E46044641882868FC
:1013D00039B1A168814209D16088401C6080002039
:1013E00070BDA060016AE1600462F5E776B18A78B9
:1013F0008078824203D28870A06800F0DDF86068CF
:1014000030B12046296800F0B1F808E0012070BD35
:101410002868606029680020486028688460092185
:101420003046FFF7DBFCF1E75800002070B51B48A1
:10143000012102685170006800F0B4F8184D6C7812
:1014400018E000BF05EBC40148680278EAB1012A40
:1014500020D000F0FFF8E878641C844200D100241A
:101460000F48801CD0E84F1F491EC9B2C0E8421F78
:10147000002AF7D1A8780028E4D16C700948FFF75A
:1014800099FDBDE8704000F011B9098989B2FFF7F4
:101490003FFDE0E78968FFF735FEDCE758000020F4
:1014A00060080020740C00200548017811B101216A
:1014B0004170704703494FF080500860704700004A
:1014C0006000002004ED00E0F0B4154DAB1CEE7898
:1014D0004FEA0507D3E84F2FB24202D1BFF32F8F57
:1014E00011E0521CD4B2C3E8424F002AF2D100BF2F
:1014F000D7E84F2F541CB44200D10024E4B2C7E80F
:10150000434F002BF4D1EB78934205D905EBC2028F
:10151000C2E90101F0BC7047F0BC0220FFF70ABC31
:1015200060080020104A10B5D368ABB113469B8AFF
:1015300003E08CB12246A48A2344D4688B42F8D3BA
:10154000C460D0600261C46804B12061591A81820C
:10155000908A401A908210BD0024C460D060C91ADD
:1015600002619182848210BD8C0C002030B502781B
:101570000023022A03D0012A01D0032A00D101232B
:101580008C7800E01046426812B19578A542F9D2F5
:101590004A6041601BB102B19160886030BD00209B
:1015A000FBE7000003494A6842600022826048600D
:1015B00070470000740C002010B5836804462BB9F6
:1015C000607801280ED1084B03E09B68187800284A
:1015D000FBD0204600F026F82146BDE81040184612
:1015E000FFF7C4BF10BD0000740C0020806A0162C8
:1015F0007047806AC0E90812704710B50169002978
:101600000ED0C268CA60C36800223BB18B8A848A4C
:1016100023448B82C3681961C26000E08A82026140
:1016200010BD0000816839B142684A6041680029F4
:1016300001D0806888607047054906E04A688242A8
:1016400002D140684860704711460029F6D17047C2
:10165000740C002010B5416881B1FFF7ABFC044663
:10166000FFF7CBFF0120607001462046FFF7BEFF69
:101670002146BDE810400348FFF778BF4188491C68
:10168000418010BD740C002006480068D0E90A10A3
:10169000814203D300680449884202D00120FFF749
:1016A00049BB704758000020A52E5AE20749022284
:1016B00048604270064A1278002A05D006C98A425C
:1016C00002D0C078FFF7CCB9704700005800002066
:1016D0007400002070B5FFF79BF900200446204AF3
:1016E000204902E042F82040401C0B889842F9D380
:1016F0001D48342201881D48FFF749F91C4800881D
:1017000080B240F000421B4801681B48FFF73FF9D8
:101710001A48082201881A480068FFF738F9194D5D
:10172000FF20194AE870EC8400212846FFF75AFC94
:10173000164804210170446015480170C4600461BA
:1017400084821448154905600220687012480470AC
:1017500044700978C170BDE87040FFF775BC0000A7
:10176000E4080020801D0008AC1D0008780000205F
:10177000841D0008B01D0008F0010020D41D0008E1
:1017800010000020400C0020550D0008740C0020B3
:101790008C0C00205800002060080020B81D0008B4
:1017A0001B4810B5016841F47F01016000684FF0EB
:1017B0007F4101EA00201649C0431439B0FA80F095
:1017C0000968C0F10800C1F30221814200D3481C1E
:1017D0000F49091F0B686FF08072824063F3170294
:1017E0000A60FFF7B9FA0B49002808600EDB00F128
:1017F000E021FF2281F8002400F01F020121914026
:101800004009800000F1E020C0F8001110BD000088
:1018100020ED00E0640000200C4810B502680121B2
:1018200051700068FFF7BEFEFFF7F4FA0848016840
:10183000491C0160FFF712FB00F074FA0548FFF73E
:10184000B9FBBDE81040FFF731BF00005800002091
:1018500068000020740C0020002805D0810702D108
:101860000178002900D000207047000030B50B4CF3
:101870000023626805E095688D4204D8134612681B
:10188000491B002AF7D10260816012B19568691A7C
:1018900091600BB1186030BD606030BD5000002019
:1018A0002DE9F0411E46174680460D4611F0FF0F08
:1018B00000D14D1C1848FFF764FA041E16D0280A00
:1018C000E762E084E9B242462046E661FFF78AFB20
:1018D00001251248124905E000EB850252F8042C5C
:1018E00032B16D1C0A889542F6D90020BDE8F0811E
:1018F000002DFAD000EB850040F8044C0948E57053
:10190000007818B101212046FFF79AF82046FFF72A
:10191000DDFA2846EAE7000078000020E40800200D
:10192000801D0008740000202DE9F05F584DDFF89D
:101930005891DFF8588129684FF0010A002618B144
:10194000CA78AB46824243D14E70FEF754FC2968F8
:101950008862FFF799FE2868046A1FE06068C0B1DA
:101960002046FFF727FB07460021FFF73FFE3846DA
:10197000FFF743FE87F801A039464648FFF7F6FD1A
:10198000E168A4F802A0A760386AE0603C620C46F7
:1019900004E0E0686680A660E6600446002CDDD1C5
:1019A0002868C27808EB820141F8046CC16A3A48A1
:1019B000FFF7D6FA2868C66299F8001011B1002125
:1019C000FFF73EF835482968FFF7CAFA2E6056E05F
:1019D0003349098888420CD808EB800858F8045C21
:1019E0003DB12846FFF71EFE2846FFF706FE2C6A8B
:1019F00022E0FF20BDE8F09F6068C0B12046FFF7FD
:101A0000D9FA07460021FFF7F1FD3846FFF7F5FD4B
:101A100087F801A039461F48FFF7A8FDE168A4F840
:101A200002A0A760386AE0603C620C4604E0E0680F
:101A30006680A660E6600446002CDDD148F8046CA0
:101A40001548E96AFFF78CFAEE6299F8000018B1C0
:101A500000212846FEF7F4FF29461048FFF780FAD8
:101A60000C48DBF8001040688B7882789A4209D9DC
:101A700081F801A00748DBF80010FFF777FD002090
:101A8000FFF724FA0020B5E774000020E4080020E6
:101A900058000020740C0020F00100207800002085
:101AA000801D000870B51A4D80B11A4A1288904204
:101AB0001FD8194A02EB800050F8044CCCB1A17039
:101AC00084F824102868A04205D014E028688170AA
:101AD000286880F82410114840688078884215D919
:101AE0000E482968FFF742FD296801204870002050
:101AF0000AE0FF2070BD2046FFF75EFD60780128F8
:101B000004D10648FFF756FAFFF7E0F9002070BD50
:101B100058000020801D0008E4080020740C0020FC
:101B200002480068002800D0C078704758000020A4
:101B300010B5134C207860B91248400705D11248FF
:101B400001681048FFF772FA08B1852010BDFFF751
:101B5000C1FD0E49FF2009688870207858B900211E
:101B60000B4800F041F80B49086000210A4800F0DA
:101B70006BF80A490860012020700020607010BDD9
:101B800050000020B0060020B41D000858000020BE
:101B9000CC1D000808000020BC1D00080400002027
:101BA00070B50F4D687808B1002070BD0D4C2068ED
:101BB00090F824100020FFF775FF2068C178FF29F6
:101BC00003D1816A203181F30988616811B96060AD
:101BD00000202060FFF7E4FD01206870E4E70000CA
:101BE000500000205800002010B5040005D02168E6
:101BF00019B1606808B102780AB1002010BD8900EF
:101C0000103189B2FFF770FA606810BD3EB504006C
:101C10000D464FF0800012D0217801290FD12846BF
:101C2000FFF742FB0246204601A9FFF7E3FA01282D
:101C300001D0102003E00DB1402000E00020DDE9DC
:101C4000011203B030BD000070B50E4604002BD069
:101C5000206848B3B4F9040010F1030F24DB032813
:101C600022DCE16829B11148FFF798F805001BD084
:101C700000E00025B4F90400E168001D40EA0121FC
:101C800033462A462068FFF70BFE40B1084901EBB6
:101C90008000084950F8040C826A516370BD1DB180
:101CA00029460248FFF772F9002070BDB0060020F7
:101CB000E4080020E50C000810B5FFF731FF00280C
:101CC00004D0034901EB800050F8040C10BD000063
:101CD000E408002010B5FFF7BFFD18B1C18C19B1A1
:101CE000C46A02E0802010BD0024C078FFF71CFE0B
:101CF000FF2806D01CB121460348FFF747F9002012
:101D000010BD812010BD0000B006002010B5FFF707
:101D100065F920B141690A680169104610BD0020CB
:101D2000014610BD2DE9F041134E7468002C1CD003
:101D3000A068124F401E4FF00108A06012E0254637
:101D400024687460002229463868FEF7C8FE10B186
:101D50000420FEF7EFFF6879012808D085F8048099
:101D6000002C02D0A0680028E9D0BDE8F081284608
:101D7000E968FFF77BFDF3E7500000200800002032
:101D800007000000C800020105000100001BB700A9
:101D90000C000000DF2E0000010000000200010026
:101DA00050000400E803000000000000780100007B
:101DB000C0040000B001000010000000090D000880
:101DC0000200000001000000C80000000400000044
:101DD0000009002000000000F81D0008000000209D
:101DE000780000006C010008701E000878000020D8
:101DF00090120000880100080000000000000000B0
:101E000000000000000000000000000000000000D2
:101E10006D0B00080000000001000000C800000079
:101E20000000000001020304010203040607080980
:101E30000204060800A24A0400000000000000009E
:101E4000010203040607080900000000000000006A
:101E50000000000000000000000000000000000082
:101E60000000000000000000000000000000000072
:0400000508000131BD
:00000001FF
